{
  "_format": "hh-sol-artifact-1",
  "contractName": "Forwarder",
  "sourceName": "contracts/Forwarder.sol",
  "abi": [
    {
      "inputs": [
        {
          "internalType": "string",
          "name": "name",
          "type": "string"
        }
      ],
      "stateMutability": "nonpayable",
      "type": "constructor"
    },
    {
      "inputs": [
        {
          "internalType": "uint48",
          "name": "deadline",
          "type": "uint48"
        }
      ],
      "name": "ERC2771ForwarderExpiredRequest",
      "type": "error"
    },
    {
      "inputs": [
        {
          "internalType": "address",
          "name": "signer",
          "type": "address"
        },
        {
          "internalType": "address",
          "name": "from",
          "type": "address"
        }
      ],
      "name": "ERC2771ForwarderInvalidSigner",
      "type": "error"
    },
    {
      "inputs": [
        {
          "internalType": "uint256",
          "name": "requestedValue",
          "type": "uint256"
        },
        {
          "internalType": "uint256",
          "name": "msgValue",
          "type": "uint256"
        }
      ],
      "name": "ERC2771ForwarderMismatchedValue",
      "type": "error"
    },
    {
      "inputs": [
        {
          "internalType": "address",
          "name": "target",
          "type": "address"
        },
        {
          "internalType": "address",
          "name": "forwarder",
          "type": "address"
        }
      ],
      "name": "ERC2771UntrustfulTarget",
      "type": "error"
    },
    {
      "inputs": [],
      "name": "FailedCall",
      "type": "error"
    },
    {
      "inputs": [
        {
          "internalType": "uint256",
          "name": "balance",
          "type": "uint256"
        },
        {
          "internalType": "uint256",
          "name": "needed",
          "type": "uint256"
        }
      ],
      "name": "InsufficientBalance",
      "type": "error"
    },
    {
      "inputs": [
        {
          "internalType": "address",
          "name": "account",
          "type": "address"
        },
        {
          "internalType": "uint256",
          "name": "currentNonce",
          "type": "uint256"
        }
      ],
      "name": "InvalidAccountNonce",
      "type": "error"
    },
    {
      "inputs": [],
      "name": "InvalidShortString",
      "type": "error"
    },
    {
      "inputs": [
        {
          "internalType": "string",
          "name": "str",
          "type": "string"
        }
      ],
      "name": "StringTooLong",
      "type": "error"
    },
    {
      "anonymous": false,
      "inputs": [
        {
          "indexed": true,
          "internalType": "uint256",
          "name": "batchSize",
          "type": "uint256"
        },
        {
          "indexed": true,
          "internalType": "address",
          "name": "refundReceiver",
          "type": "address"
        },
        {
          "indexed": false,
          "internalType": "bool",
          "name": "success",
          "type": "bool"
        }
      ],
      "name": "BatchExecuted",
      "type": "event"
    },
    {
      "anonymous": false,
      "inputs": [],
      "name": "EIP712DomainChanged",
      "type": "event"
    },
    {
      "anonymous": false,
      "inputs": [
        {
          "indexed": true,
          "internalType": "address",
          "name": "signer",
          "type": "address"
        },
        {
          "indexed": false,
          "internalType": "uint256",
          "name": "nonce",
          "type": "uint256"
        },
        {
          "indexed": false,
          "internalType": "bool",
          "name": "success",
          "type": "bool"
        }
      ],
      "name": "ExecutedForwardRequest",
      "type": "event"
    },
    {
      "anonymous": false,
      "inputs": [
        {
          "indexed": true,
          "internalType": "address",
          "name": "requester",
          "type": "address"
        },
        {
          "indexed": false,
          "internalType": "bool",
          "name": "success",
          "type": "bool"
        }
      ],
      "name": "RequestExecuted",
      "type": "event"
    },
    {
      "inputs": [],
      "name": "eip712Domain",
      "outputs": [
        {
          "internalType": "bytes1",
          "name": "fields",
          "type": "bytes1"
        },
        {
          "internalType": "string",
          "name": "name",
          "type": "string"
        },
        {
          "internalType": "string",
          "name": "version",
          "type": "string"
        },
        {
          "internalType": "uint256",
          "name": "chainId",
          "type": "uint256"
        },
        {
          "internalType": "address",
          "name": "verifyingContract",
          "type": "address"
        },
        {
          "internalType": "bytes32",
          "name": "salt",
          "type": "bytes32"
        },
        {
          "internalType": "uint256[]",
          "name": "extensions",
          "type": "uint256[]"
        }
      ],
      "stateMutability": "view",
      "type": "function"
    },
    {
      "inputs": [
        {
          "components": [
            {
              "internalType": "address",
              "name": "from",
              "type": "address"
            },
            {
              "internalType": "address",
              "name": "to",
              "type": "address"
            },
            {
              "internalType": "uint256",
              "name": "value",
              "type": "uint256"
            },
            {
              "internalType": "uint256",
              "name": "gas",
              "type": "uint256"
            },
            {
              "internalType": "uint48",
              "name": "deadline",
              "type": "uint48"
            },
            {
              "internalType": "bytes",
              "name": "data",
              "type": "bytes"
            },
            {
              "internalType": "bytes",
              "name": "signature",
              "type": "bytes"
            }
          ],
          "internalType": "struct ERC2771Forwarder.ForwardRequestData",
          "name": "request",
          "type": "tuple"
        }
      ],
      "name": "execute",
      "outputs": [],
      "stateMutability": "payable",
      "type": "function"
    },
    {
      "inputs": [
        {
          "components": [
            {
              "internalType": "address",
              "name": "from",
              "type": "address"
            },
            {
              "internalType": "address",
              "name": "to",
              "type": "address"
            },
            {
              "internalType": "uint256",
              "name": "value",
              "type": "uint256"
            },
            {
              "internalType": "uint256",
              "name": "gas",
              "type": "uint256"
            },
            {
              "internalType": "uint48",
              "name": "deadline",
              "type": "uint48"
            },
            {
              "internalType": "bytes",
              "name": "data",
              "type": "bytes"
            },
            {
              "internalType": "bytes",
              "name": "signature",
              "type": "bytes"
            }
          ],
          "internalType": "struct ERC2771Forwarder.ForwardRequestData[]",
          "name": "requests",
          "type": "tuple[]"
        },
        {
          "internalType": "address payable",
          "name": "refundReceiver",
          "type": "address"
        }
      ],
      "name": "executeBatch",
      "outputs": [],
      "stateMutability": "payable",
      "type": "function"
    },
    {
      "inputs": [
        {
          "internalType": "address",
          "name": "owner",
          "type": "address"
        }
      ],
      "name": "nonces",
      "outputs": [
        {
          "internalType": "uint256",
          "name": "",
          "type": "uint256"
        }
      ],
      "stateMutability": "view",
      "type": "function"
    },
    {
      "inputs": [
        {
          "components": [
            {
              "internalType": "address",
              "name": "from",
              "type": "address"
            },
            {
              "internalType": "address",
              "name": "to",
              "type": "address"
            },
            {
              "internalType": "uint256",
              "name": "value",
              "type": "uint256"
            },
            {
              "internalType": "uint256",
              "name": "gas",
              "type": "uint256"
            },
            {
              "internalType": "uint48",
              "name": "deadline",
              "type": "uint48"
            },
            {
              "internalType": "bytes",
              "name": "data",
              "type": "bytes"
            },
            {
              "internalType": "bytes",
              "name": "signature",
              "type": "bytes"
            }
          ],
          "internalType": "struct ERC2771Forwarder.ForwardRequestData",
          "name": "request",
          "type": "tuple"
        }
      ],
      "name": "verify",
      "outputs": [
        {
          "internalType": "bool",
          "name": "",
          "type": "bool"
        }
      ],
      "stateMutability": "view",
      "type": "function"
    }
  ],
  "bytecode": "0x61016060405234801561001157600080fd5b5060405161292f38038061292f833981810160405281019061003391906103ae565b80806040518060400160405280600181526020017f310000000000000000000000000000000000000000000000000000000000000081525061007f60008361011c60201b90919060201c565b610120818152505061009b60018261011c60201b90919060201c565b6101408181525050818051906020012060e08181525050808051906020012061010081815250504660a081815250506100d861016c60201b60201c565b608081815250503073ffffffffffffffffffffffffffffffffffffffff1660c08173ffffffffffffffffffffffffffffffffffffffff1681525050505050506108a9565b600060208351101561013e57610137836101c760201b60201c565b9050610166565b8261014e8361022f60201b60201c565b600001908161015d9190610618565b5060ff60001b90505b92915050565b60007f8b73c3c69bb8fe3d512ecc4cf759cc79239f7b179b0ffacaa9a75d522b39400f60e0516101005146306040516020016101ac959493929190610753565b60405160208183030381529060405280519060200120905090565b600080829050601f8151111561021457826040517f305a27a900000000000000000000000000000000000000000000000000000000815260040161020b91906107f0565b60405180910390fd5b80518161022090610842565b60001c1760001b915050919050565b6000819050919050565b6000604051905090565b600080fd5b600080fd5b600080fd5b600080fd5b6000601f19601f8301169050919050565b7f4e487b7100000000000000000000000000000000000000000000000000000000600052604160045260246000fd5b6102a082610257565b810181811067ffffffffffffffff821117156102bf576102be610268565b5b80604052505050565b60006102d2610239565b90506102de8282610297565b919050565b600067ffffffffffffffff8211156102fe576102fd610268565b5b61030782610257565b9050602081019050919050565b60005b83811015610332578082015181840152602081019050610317565b60008484015250505050565b600061035161034c846102e3565b6102c8565b90508281526020810184848401111561036d5761036c610252565b5b610378848285610314565b509392505050565b600082601f8301126103955761039461024d565b5b81516103a584826020860161033e565b91505092915050565b6000602082840312156103c4576103c3610243565b5b600082015167ffffffffffffffff8111156103e2576103e1610248565b5b6103ee84828501610380565b91505092915050565b600081519050919050565b7f4e487b7100000000000000000000000000000000000000000000000000000000600052602260045260246000fd5b6000600282049050600182168061044957607f821691505b60208210810361045c5761045b610402565b5b50919050565b60008190508160005260206000209050919050565b60006020601f8301049050919050565b600082821b905092915050565b6000600883026104c47fffffffffffffffffffffffffffffffffffffffffffffffffffffffffffffffff82610487565b6104ce8683610487565b95508019841693508086168417925050509392505050565b6000819050919050565b6000819050919050565b600061051561051061050b846104e6565b6104f0565b6104e6565b9050919050565b6000819050919050565b61052f836104fa565b61054361053b8261051c565b848454610494565b825550505050565b600090565b61055861054b565b610563818484610526565b505050565b5b818110156105875761057c600082610550565b600181019050610569565b5050565b601f8211156105cc5761059d81610462565b6105a684610477565b810160208510156105b5578190505b6105c96105c185610477565b830182610568565b50505b505050565b600082821c905092915050565b60006105ef600019846008026105d1565b1980831691505092915050565b600061060883836105de565b9150826002028217905092915050565b610621826103f7565b67ffffffffffffffff81111561063a57610639610268565b5b6106448254610431565b61064f82828561058b565b600060209050601f8311600181146106825760008415610670578287015190505b61067a85826105fc565b8655506106e2565b601f19841661069086610462565b60005b828110156106b857848901518255600182019150602085019450602081019050610693565b868310156106d557848901516106d1601f8916826105de565b8355505b6001600288020188555050505b505050505050565b6000819050919050565b6106fd816106ea565b82525050565b61070c816104e6565b82525050565b600073ffffffffffffffffffffffffffffffffffffffff82169050919050565b600061073d82610712565b9050919050565b61074d81610732565b82525050565b600060a08201905061076860008301886106f4565b61077560208301876106f4565b61078260408301866106f4565b61078f6060830185610703565b61079c6080830184610744565b9695505050505050565b600082825260208201905092915050565b60006107c2826103f7565b6107cc81856107a6565b93506107dc818560208601610314565b6107e581610257565b840191505092915050565b6000602082019050818103600083015261080a81846107b7565b905092915050565b600081519050919050565b6000819050602082019050919050565b600061083982516106ea565b80915050919050565b600061084d82610812565b826108578461081d565b90506108628161082d565b925060208210156108a25761089d7fffffffffffffffffffffffffffffffffffffffffffffffffffffffffffffffff83602003600802610487565b831692505b5050919050565b60805160a05160c05160e05161010051610120516101405161202c61090360003960006105d50152600061059a0152600061142101526000611400015260006111a3015260006111f901526000611222015261202c6000f3fe60806040526004361061004a5760003560e01c806319d8d38c1461004f5780637ecebe001461008c57806384b0196e146100c9578063ccf96b4a146100fa578063df905caf14610116575b600080fd5b34801561005b57600080fd5b50610076600480360381019061007191906114a9565b610132565b604051610083919061150d565b60405180910390f35b34801561009857600080fd5b506100b360048036038101906100ae9190611586565b610165565b6040516100c091906115cc565b60405180910390f35b3480156100d557600080fd5b506100de6101ae565b6040516100f19796959493929190611798565b60405180910390f35b610114600480360381019061010f91906118bf565b610258565b005b610130600480360381019061012b91906114a9565b6103c4565b005b600080600080610141856104e6565b509250925092508280156101525750815b801561015b5750805b9350505050919050565b6000600260008373ffffffffffffffffffffffffffffffffffffffff1673ffffffffffffffffffffffffffffffffffffffff168152602001908152602001600020549050919050565b6000606080600080600060606101c2610591565b6101ca6105cc565b46306000801b600067ffffffffffffffff8111156101eb576101ea61191f565b5b6040519080825280602002602001820160405280156102195781602001602082028036833780820191505090505b507f0f00000000000000000000000000000000000000000000000000000000000000959493929190965096509650965096509650965090919293949596565b61026133610607565b6102a0576040517f08c379a00000000000000000000000000000000000000000000000000000000081526004016102979061199a565b60405180910390fd5b6102ab838383610651565b6102ed6040518060400160405280601b81526020017f72657175657374732e6c656e6774682d2d2d2d2d2d2d2d2d2d2d3e0000000000815250848490506107a7565b61032c6040518060400160405280601a81526020017f726566756e6452656365697665722d2d2d2d2d2d2d2d2d2d2d3e00000000000081525082610843565b61036c6040518060400160405280601381526020017f737563636573732d2d2d2d2d2d2d2d2d2d2d3e0000000000000000000000000081525060016108df565b8073ffffffffffffffffffffffffffffffffffffffff16838390507fe94bd8ab82887b872480a63dc973cb9305ed4363100496ea41c34094a6d3aa0960016040516103b7919061150d565b60405180910390a3505050565b6103cd33610607565b61040c576040517f08c379a00000000000000000000000000000000000000000000000000000000081526004016104039061199a565b60405180910390fd5b6104158161097b565b6104546040518060400160405280601881526020017f6d73672e73656e6465722d2d2d2d2d2d2d2d2d2d2d2d2d3e000000000000000081525033610843565b6104946040518060400160405280601581526020017f737563636573732d2d2d2d2d2d2d2d2d2d2d2d2d3e000000000000000000000081525060016108df565b3373ffffffffffffffffffffffffffffffffffffffff167f76cadd3f91c7dfde1928dcdfa4ae8dd67ef2b2bfc1406d162a549edfa845ffdd60016040516104db919061150d565b60405180910390a250565b6000806000806000806104f887610a0d565b915091506105178760200160208101906105129190611586565b610b8a565b4288608001602081019061052b91906119f8565b65ffffffffffff16101583801561057f57508860000160208101906105509190611586565b73ffffffffffffffffffffffffffffffffffffffff168373ffffffffffffffffffffffffffffffffffffffff16145b83955095509550955050509193509193565b60606105c760007f0000000000000000000000000000000000000000000000000000000000000000610c2690919063ffffffff16565b905090565b606061060260017f0000000000000000000000000000000000000000000000000000000000000000610c2690919063ffffffff16565b905090565b60006106486040518060400160405280601681526020017f757365722d2d2d2d2d2d2d2d2d2d2d2d2d2d2d2d2d3e0000000000000000000081525083610843565b60019050919050565b60008073ffffffffffffffffffffffffffffffffffffffff168273ffffffffffffffffffffffffffffffffffffffff1614905060008060005b86869050811015610745578686828181106106a8576106a7611a25565b5b90506020028101906106ba9190611a63565b60400135836106c99190611aba565b925060006106fb8888848181106106e3576106e2611a25565b5b90506020028101906106f59190611a63565b86610cd6565b9050806107395787878381811061071557610714611a25565b5b90506020028101906107279190611a63565b60400135836107369190611aba565b92505b5080600101905061068a565b5034821461078c5781346040517f70647f79000000000000000000000000000000000000000000000000000000008152600401610783929190611aee565b60405180910390fd5b6000811461079f5761079e8482610f0b565b5b505050505050565b61083f82826040516024016107bd929190611b17565b6040516020818303038152906040527fb60e72cc000000000000000000000000000000000000000000000000000000007bffffffffffffffffffffffffffffffffffffffffffffffffffffffff19166020820180517bffffffffffffffffffffffffffffffffffffffffffffffffffffffff8381831617835250505050610ffa565b5050565b6108db8282604051602401610859929190611b47565b6040516020818303038152906040527f319af333000000000000000000000000000000000000000000000000000000007bffffffffffffffffffffffffffffffffffffffffffffffffffffffff19166020820180517bffffffffffffffffffffffffffffffffffffffffffffffffffffffff8381831617835250505050610ffa565b5050565b61097782826040516024016108f5929190611b77565b6040516020818303038152906040527fc3b55635000000000000000000000000000000000000000000000000000000007bffffffffffffffffffffffffffffffffffffffffffffffffffffffff19166020820180517bffffffffffffffffffffffffffffffffffffffffffffffffffffffff8381831617835250505050610ffa565b5050565b806040013534146109c9578060400135346040517f70647f790000000000000000000000000000000000000000000000000000000081526004016109c0929190611aee565b60405180910390fd5b6109d4816001610cd6565b610a0a576040517fd6bda27500000000000000000000000000000000000000000000000000000000815260040160405180910390fd5b50565b600080600080610b51858060c00190610a269190611ba7565b8080601f016020809104026020016040519081016040528093929190818152602001838380828437600081840152601f19601f82011690508083019250505050505050610b437f7f96328b83274ebc7c1cf4f7a3abda602b51a78b7fa1d86a2ce353d75e587cac886000016020810190610aa09190611586565b896020016020810190610ab39190611586565b8a604001358b60600135610ad88d6000016020810190610ad39190611586565b610165565b8d6080016020810190610aeb91906119f8565b8e8060a00190610afb9190611ba7565b604051610b09929190611c49565b6040518091039020604051602001610b28989796959493929190611c71565b60405160208183030381529060405280519060200120611014565b61102e90919063ffffffff16565b509150915060006003811115610b6a57610b69611cef565b5b816003811115610b7d57610b7c611cef565b5b1482935093505050915091565b60008030604051602401610b9e9190611d1e565b60405160208183030381529060405263572b6c0560e01b6020820180517bffffffffffffffffffffffffffffffffffffffffffffffffffffffff83818316178352505050509050600080600060206000855160208701895afa92503d91506000519050828015610c0f575060208210155b8015610c1b5750600081115b945050505050919050565b606060ff60001b8314610c4357610c3c8361108a565b9050610cd0565b818054610c4f90611d68565b80601f0160208091040260200160405190810160405280929190818152602001828054610c7b90611d68565b8015610cc85780601f10610c9d57610100808354040283529160200191610cc8565b820191906000526020600020905b815481529060010190602001808311610cab57829003601f168201915b505050505090505b92915050565b6000806000806000610ce7876104e6565b93509350935093508515610df65783610d4b57866020016020810190610d0d9190611586565b306040517fd2650cd1000000000000000000000000000000000000000000000000000000008152600401610d42929190611d99565b60405180910390fd5b82610d9f57866080016020810190610d6391906119f8565b6040517f94eef58a000000000000000000000000000000000000000000000000000000008152600401610d969190611dc2565b60405180910390fd5b81610df55780876000016020810190610db89190611586565b6040517fc845a056000000000000000000000000000000000000000000000000000000008152600401610dec929190611d99565b60405180910390fd5b5b838015610e005750815b8015610e095750825b15610f01576000610e19826110fe565b90506000886060013590506000896020016020810190610e399190611586565b905060008a60400135905060008b8060a00190610e569190611ba7565b8d6000016020810190610e699190611586565b604051602001610e7b93929190611e25565b6040516020818303038152906040529050600080600083516020850186888af19a505a9050610eaa818e611155565b8673ffffffffffffffffffffffffffffffffffffffff167f842fb24a83793558587a3dab2be7674da4a51d09c5542d6dd354e5d0ea70813c878d604051610ef2929190611e4f565b60405180910390a25050505050505b5050505092915050565b80471015610f525747816040517fcf479181000000000000000000000000000000000000000000000000000000008152600401610f49929190611aee565b60405180910390fd5b60008273ffffffffffffffffffffffffffffffffffffffff1682604051610f7890611e9e565b60006040518083038185875af1925050503d8060008114610fb5576040519150601f19603f3d011682016040523d82523d6000602084013e610fba565b606091505b5050905080610ff5576040517fd6bda27500000000000000000000000000000000000000000000000000000000815260040160405180910390fd5b505050565b61101181611009611173611194565b63ffffffff16565b50565b600061102761102161119f565b83611256565b9050919050565b600080600060418451036110735760008060006020870151925060408701519150606087015160001a905061106588828585611297565b955095509550505050611083565b60006002855160001b9250925092505b9250925092565b606060006110978361138b565b90506000602067ffffffffffffffff8111156110b6576110b561191f565b5b6040519080825280601f01601f1916602001820160405280156110e85781602001600182028036833780820191505090505b5090508181528360208201528092505050919050565b6000600260008373ffffffffffffffffffffffffffffffffffffffff1673ffffffffffffffffffffffffffffffffffffffff1681526020019081526020016000206000815480929190600101919050559050919050565b603f81606001356111669190611ee2565b82101561116f57fe5b5050565b60006a636f6e736f6c652e6c6f679050600080835160208501845afa505050565b611471819050919050565b60007f000000000000000000000000000000000000000000000000000000000000000073ffffffffffffffffffffffffffffffffffffffff163073ffffffffffffffffffffffffffffffffffffffff1614801561121b57507f000000000000000000000000000000000000000000000000000000000000000046145b15611248577f00000000000000000000000000000000000000000000000000000000000000009050611253565b6112506113db565b90505b90565b60006040517f190100000000000000000000000000000000000000000000000000000000000081528360028201528260228201526042812091505092915050565b60008060007f7fffffffffffffffffffffffffffffff5d576e7357a4501ddfe92f46681b20a08460001c11156112d7576000600385925092509250611381565b6000600188888888604051600081526020016040526040516112fc9493929190611f2f565b6020604051602081039080840390855afa15801561131e573d6000803e3d6000fd5b505050602060405103519050600073ffffffffffffffffffffffffffffffffffffffff168173ffffffffffffffffffffffffffffffffffffffff160361137257600060016000801b93509350935050611381565b8060008060001b935093509350505b9450945094915050565b60008060ff8360001c169050601f8111156113d2576040517fb3512b0c00000000000000000000000000000000000000000000000000000000815260040160405180910390fd5b80915050919050565b60007f8b73c3c69bb8fe3d512ecc4cf759cc79239f7b179b0ffacaa9a75d522b39400f7f00000000000000000000000000000000000000000000000000000000000000007f00000000000000000000000000000000000000000000000000000000000000004630604051602001611456959493929190611f74565b60405160208183030381529060405280519060200120905090565b611479611fc7565b565b600080fd5b600080fd5b600080fd5b600060e082840312156114a05761149f611485565b5b81905092915050565b6000602082840312156114bf576114be61147b565b5b600082013567ffffffffffffffff8111156114dd576114dc611480565b5b6114e98482850161148a565b91505092915050565b60008115159050919050565b611507816114f2565b82525050565b600060208201905061152260008301846114fe565b92915050565b600073ffffffffffffffffffffffffffffffffffffffff82169050919050565b600061155382611528565b9050919050565b61156381611548565b811461156e57600080fd5b50565b6000813590506115808161155a565b92915050565b60006020828403121561159c5761159b61147b565b5b60006115aa84828501611571565b91505092915050565b6000819050919050565b6115c6816115b3565b82525050565b60006020820190506115e160008301846115bd565b92915050565b60007fff0000000000000000000000000000000000000000000000000000000000000082169050919050565b61161c816115e7565b82525050565b600081519050919050565b600082825260208201905092915050565b60005b8381101561165c578082015181840152602081019050611641565b60008484015250505050565b6000601f19601f8301169050919050565b600061168482611622565b61168e818561162d565b935061169e81856020860161163e565b6116a781611668565b840191505092915050565b6116bb81611548565b82525050565b6000819050919050565b6116d4816116c1565b82525050565b600081519050919050565b600082825260208201905092915050565b6000819050602082019050919050565b61170f816115b3565b82525050565b60006117218383611706565b60208301905092915050565b6000602082019050919050565b6000611745826116da565b61174f81856116e5565b935061175a836116f6565b8060005b8381101561178b5781516117728882611715565b975061177d8361172d565b92505060018101905061175e565b5085935050505092915050565b600060e0820190506117ad600083018a611613565b81810360208301526117bf8189611679565b905081810360408301526117d38188611679565b90506117e260608301876115bd565b6117ef60808301866116b2565b6117fc60a08301856116cb565b81810360c083015261180e818461173a565b905098975050505050505050565b600080fd5b600080fd5b600080fd5b60008083601f8401126118415761184061181c565b5b8235905067ffffffffffffffff81111561185e5761185d611821565b5b60208301915083602082028301111561187a57611879611826565b5b9250929050565b600061188c82611528565b9050919050565b61189c81611881565b81146118a757600080fd5b50565b6000813590506118b981611893565b92915050565b6000806000604084860312156118d8576118d761147b565b5b600084013567ffffffffffffffff8111156118f6576118f5611480565b5b6119028682870161182b565b93509350506020611915868287016118aa565b9150509250925092565b7f4e487b7100000000000000000000000000000000000000000000000000000000600052604160045260246000fd5b7f4e6f7420617574686f72697a6564000000000000000000000000000000000000600082015250565b6000611984600e8361162d565b915061198f8261194e565b602082019050919050565b600060208201905081810360008301526119b381611977565b9050919050565b600065ffffffffffff82169050919050565b6119d5816119ba565b81146119e057600080fd5b50565b6000813590506119f2816119cc565b92915050565b600060208284031215611a0e57611a0d61147b565b5b6000611a1c848285016119e3565b91505092915050565b7f4e487b7100000000000000000000000000000000000000000000000000000000600052603260045260246000fd5b600080fd5b600080fd5b600080fd5b60008235600160e003833603038112611a7f57611a7e611a54565b5b80830191505092915050565b7f4e487b7100000000000000000000000000000000000000000000000000000000600052601160045260246000fd5b6000611ac5826115b3565b9150611ad0836115b3565b9250828201905080821115611ae857611ae7611a8b565b5b92915050565b6000604082019050611b0360008301856115bd565b611b1060208301846115bd565b9392505050565b60006040820190508181036000830152611b318185611679565b9050611b4060208301846115bd565b9392505050565b60006040820190508181036000830152611b618185611679565b9050611b7060208301846116b2565b9392505050565b60006040820190508181036000830152611b918185611679565b9050611ba060208301846114fe565b9392505050565b60008083356001602003843603038112611bc457611bc3611a54565b5b80840192508235915067ffffffffffffffff821115611be657611be5611a59565b5b602083019250600182023603831315611c0257611c01611a5e565b5b509250929050565b600081905092915050565b82818337600083830152505050565b6000611c308385611c0a565b9350611c3d838584611c15565b82840190509392505050565b6000611c56828486611c24565b91508190509392505050565b611c6b816119ba565b82525050565b600061010082019050611c87600083018b6116cb565b611c94602083018a6116b2565b611ca160408301896116b2565b611cae60608301886115bd565b611cbb60808301876115bd565b611cc860a08301866115bd565b611cd560c0830185611c62565b611ce260e08301846116cb565b9998505050505050505050565b7f4e487b7100000000000000000000000000000000000000000000000000000000600052602160045260246000fd5b6000602082019050611d3360008301846116b2565b92915050565b7f4e487b7100000000000000000000000000000000000000000000000000000000600052602260045260246000fd5b60006002820490506001821680611d8057607f821691505b602082108103611d9357611d92611d39565b5b50919050565b6000604082019050611dae60008301856116b2565b611dbb60208301846116b2565b9392505050565b6000602082019050611dd76000830184611c62565b92915050565b60008160601b9050919050565b6000611df582611ddd565b9050919050565b6000611e0782611dea565b9050919050565b611e1f611e1a82611548565b611dfc565b82525050565b6000611e32828587611c24565b9150611e3e8284611e0e565b601482019150819050949350505050565b6000604082019050611e6460008301856115bd565b611e7160208301846114fe565b9392505050565b50565b6000611e88600083611c0a565b9150611e9382611e78565b600082019050919050565b6000611ea982611e7b565b9150819050919050565b7f4e487b7100000000000000000000000000000000000000000000000000000000600052601260045260246000fd5b6000611eed826115b3565b9150611ef8836115b3565b925082611f0857611f07611eb3565b5b828204905092915050565b600060ff82169050919050565b611f2981611f13565b82525050565b6000608082019050611f4460008301876116cb565b611f516020830186611f20565b611f5e60408301856116cb565b611f6b60608301846116cb565b95945050505050565b600060a082019050611f8960008301886116cb565b611f9660208301876116cb565b611fa360408301866116cb565b611fb060608301856115bd565b611fbd60808301846116b2565b9695505050505050565b7f4e487b7100000000000000000000000000000000000000000000000000000000600052605160045260246000fdfea2646970667358221220774307adca64d80e79cf987f84ceaee53660e0c030a34770845cda3c7e7d27e364736f6c634300081b0033",
  "linkReferences": {},
  "deployedLinkReferences": {}
}