{
  "_format": "hh-sol-artifact-1",
  "contractName": "Forwarder",
  "sourceName": "contracts/Forwarder.sol",
  "abi": [
    {
      "inputs": [
        {
          "internalType": "string",
          "name": "name",
          "type": "string"
        }
      ],
      "stateMutability": "nonpayable",
      "type": "constructor"
    },
    {
      "inputs": [
        {
          "internalType": "uint48",
          "name": "deadline",
          "type": "uint48"
        }
      ],
      "name": "ERC2771ForwarderExpiredRequest",
      "type": "error"
    },
    {
      "inputs": [
        {
          "internalType": "address",
          "name": "signer",
          "type": "address"
        },
        {
          "internalType": "address",
          "name": "from",
          "type": "address"
        }
      ],
      "name": "ERC2771ForwarderInvalidSigner",
      "type": "error"
    },
    {
      "inputs": [
        {
          "internalType": "uint256",
          "name": "requestedValue",
          "type": "uint256"
        },
        {
          "internalType": "uint256",
          "name": "msgValue",
          "type": "uint256"
        }
      ],
      "name": "ERC2771ForwarderMismatchedValue",
      "type": "error"
    },
    {
      "inputs": [
        {
          "internalType": "address",
          "name": "target",
          "type": "address"
        },
        {
          "internalType": "address",
          "name": "forwarder",
          "type": "address"
        }
      ],
      "name": "ERC2771UntrustfulTarget",
      "type": "error"
    },
    {
      "inputs": [],
      "name": "FailedCall",
      "type": "error"
    },
    {
      "inputs": [
        {
          "internalType": "uint256",
          "name": "balance",
          "type": "uint256"
        },
        {
          "internalType": "uint256",
          "name": "needed",
          "type": "uint256"
        }
      ],
      "name": "InsufficientBalance",
      "type": "error"
    },
    {
      "inputs": [
        {
          "internalType": "address",
          "name": "account",
          "type": "address"
        },
        {
          "internalType": "uint256",
          "name": "currentNonce",
          "type": "uint256"
        }
      ],
      "name": "InvalidAccountNonce",
      "type": "error"
    },
    {
      "inputs": [],
      "name": "InvalidShortString",
      "type": "error"
    },
    {
      "inputs": [
        {
          "internalType": "string",
          "name": "str",
          "type": "string"
        }
      ],
      "name": "StringTooLong",
      "type": "error"
    },
    {
      "anonymous": false,
      "inputs": [
        {
          "indexed": true,
          "internalType": "uint256",
          "name": "batchSize",
          "type": "uint256"
        },
        {
          "indexed": true,
          "internalType": "address",
          "name": "refundReceiver",
          "type": "address"
        },
        {
          "indexed": false,
          "internalType": "bool",
          "name": "success",
          "type": "bool"
        }
      ],
      "name": "BatchExecuted",
      "type": "event"
    },
    {
      "anonymous": false,
      "inputs": [],
      "name": "EIP712DomainChanged",
      "type": "event"
    },
    {
      "anonymous": false,
      "inputs": [
        {
          "indexed": true,
          "internalType": "address",
          "name": "signer",
          "type": "address"
        },
        {
          "indexed": false,
          "internalType": "uint256",
          "name": "nonce",
          "type": "uint256"
        },
        {
          "indexed": false,
          "internalType": "bool",
          "name": "success",
          "type": "bool"
        }
      ],
      "name": "ExecutedForwardRequest",
      "type": "event"
    },
    {
      "anonymous": false,
      "inputs": [
        {
          "indexed": true,
          "internalType": "address",
          "name": "requester",
          "type": "address"
        },
        {
          "indexed": false,
          "internalType": "bool",
          "name": "success",
          "type": "bool"
        }
      ],
      "name": "RequestExecuted",
      "type": "event"
    },
    {
      "inputs": [],
      "name": "eip712Domain",
      "outputs": [
        {
          "internalType": "bytes1",
          "name": "fields",
          "type": "bytes1"
        },
        {
          "internalType": "string",
          "name": "name",
          "type": "string"
        },
        {
          "internalType": "string",
          "name": "version",
          "type": "string"
        },
        {
          "internalType": "uint256",
          "name": "chainId",
          "type": "uint256"
        },
        {
          "internalType": "address",
          "name": "verifyingContract",
          "type": "address"
        },
        {
          "internalType": "bytes32",
          "name": "salt",
          "type": "bytes32"
        },
        {
          "internalType": "uint256[]",
          "name": "extensions",
          "type": "uint256[]"
        }
      ],
      "stateMutability": "view",
      "type": "function"
    },
    {
      "inputs": [
        {
          "components": [
            {
              "internalType": "address",
              "name": "from",
              "type": "address"
            },
            {
              "internalType": "address",
              "name": "to",
              "type": "address"
            },
            {
              "internalType": "uint256",
              "name": "value",
              "type": "uint256"
            },
            {
              "internalType": "uint256",
              "name": "gas",
              "type": "uint256"
            },
            {
              "internalType": "uint48",
              "name": "deadline",
              "type": "uint48"
            },
            {
              "internalType": "bytes",
              "name": "data",
              "type": "bytes"
            },
            {
              "internalType": "bytes",
              "name": "signature",
              "type": "bytes"
            }
          ],
          "internalType": "struct ERC2771Forwarder.ForwardRequestData",
          "name": "request",
          "type": "tuple"
        }
      ],
      "name": "execute",
      "outputs": [],
      "stateMutability": "payable",
      "type": "function"
    },
    {
      "inputs": [
        {
          "components": [
            {
              "internalType": "address",
              "name": "from",
              "type": "address"
            },
            {
              "internalType": "address",
              "name": "to",
              "type": "address"
            },
            {
              "internalType": "uint256",
              "name": "value",
              "type": "uint256"
            },
            {
              "internalType": "uint256",
              "name": "gas",
              "type": "uint256"
            },
            {
              "internalType": "uint48",
              "name": "deadline",
              "type": "uint48"
            },
            {
              "internalType": "bytes",
              "name": "data",
              "type": "bytes"
            },
            {
              "internalType": "bytes",
              "name": "signature",
              "type": "bytes"
            }
          ],
          "internalType": "struct ERC2771Forwarder.ForwardRequestData[]",
          "name": "requests",
          "type": "tuple[]"
        },
        {
          "internalType": "address payable",
          "name": "refundReceiver",
          "type": "address"
        }
      ],
      "name": "executeBatch",
      "outputs": [],
      "stateMutability": "payable",
      "type": "function"
    },
    {
      "inputs": [],
      "name": "name_",
      "outputs": [
        {
          "internalType": "string",
          "name": "",
          "type": "string"
        }
      ],
      "stateMutability": "view",
      "type": "function"
    },
    {
      "inputs": [
        {
          "internalType": "address",
          "name": "owner",
          "type": "address"
        }
      ],
      "name": "nonces",
      "outputs": [
        {
          "internalType": "uint256",
          "name": "",
          "type": "uint256"
        }
      ],
      "stateMutability": "view",
      "type": "function"
    },
    {
      "inputs": [
        {
          "components": [
            {
              "internalType": "address",
              "name": "from",
              "type": "address"
            },
            {
              "internalType": "address",
              "name": "to",
              "type": "address"
            },
            {
              "internalType": "uint256",
              "name": "value",
              "type": "uint256"
            },
            {
              "internalType": "uint256",
              "name": "gas",
              "type": "uint256"
            },
            {
              "internalType": "uint48",
              "name": "deadline",
              "type": "uint48"
            },
            {
              "internalType": "bytes",
              "name": "data",
              "type": "bytes"
            },
            {
              "internalType": "bytes",
              "name": "signature",
              "type": "bytes"
            }
          ],
          "internalType": "struct ERC2771Forwarder.ForwardRequestData",
          "name": "request",
          "type": "tuple"
        }
      ],
      "name": "verify",
      "outputs": [
        {
          "internalType": "bool",
          "name": "",
          "type": "bool"
        }
      ],
      "stateMutability": "view",
      "type": "function"
    }
  ],
  "bytecode": "0x61016060405234801561001157600080fd5b50604051612a25380380612a25833981810160405281019061003391906103be565b80806040518060400160405280600181526020017f310000000000000000000000000000000000000000000000000000000000000081525061007f60008361012c60201b90919060201c565b610120818152505061009b60018261012c60201b90919060201c565b6101408181525050818051906020012060e08181525050808051906020012061010081815250504660a081815250506100d861017c60201b60201c565b608081815250503073ffffffffffffffffffffffffffffffffffffffff1660c08173ffffffffffffffffffffffffffffffffffffffff168152505050505080600390816101259190610628565b50506108b9565b600060208351101561014e57610147836101d760201b60201c565b9050610176565b8261015e8361023f60201b60201c565b600001908161016d9190610628565b5060ff60001b90505b92915050565b60007f8b73c3c69bb8fe3d512ecc4cf759cc79239f7b179b0ffacaa9a75d522b39400f60e0516101005146306040516020016101bc959493929190610763565b60405160208183030381529060405280519060200120905090565b600080829050601f8151111561022457826040517f305a27a900000000000000000000000000000000000000000000000000000000815260040161021b9190610800565b60405180910390fd5b80518161023090610852565b60001c1760001b915050919050565b6000819050919050565b6000604051905090565b600080fd5b600080fd5b600080fd5b600080fd5b6000601f19601f8301169050919050565b7f4e487b7100000000000000000000000000000000000000000000000000000000600052604160045260246000fd5b6102b082610267565b810181811067ffffffffffffffff821117156102cf576102ce610278565b5b80604052505050565b60006102e2610249565b90506102ee82826102a7565b919050565b600067ffffffffffffffff82111561030e5761030d610278565b5b61031782610267565b9050602081019050919050565b60005b83811015610342578082015181840152602081019050610327565b60008484015250505050565b600061036161035c846102f3565b6102d8565b90508281526020810184848401111561037d5761037c610262565b5b610388848285610324565b509392505050565b600082601f8301126103a5576103a461025d565b5b81516103b584826020860161034e565b91505092915050565b6000602082840312156103d4576103d3610253565b5b600082015167ffffffffffffffff8111156103f2576103f1610258565b5b6103fe84828501610390565b91505092915050565b600081519050919050565b7f4e487b7100000000000000000000000000000000000000000000000000000000600052602260045260246000fd5b6000600282049050600182168061045957607f821691505b60208210810361046c5761046b610412565b5b50919050565b60008190508160005260206000209050919050565b60006020601f8301049050919050565b600082821b905092915050565b6000600883026104d47fffffffffffffffffffffffffffffffffffffffffffffffffffffffffffffffff82610497565b6104de8683610497565b95508019841693508086168417925050509392505050565b6000819050919050565b6000819050919050565b600061052561052061051b846104f6565b610500565b6104f6565b9050919050565b6000819050919050565b61053f8361050a565b61055361054b8261052c565b8484546104a4565b825550505050565b600090565b61056861055b565b610573818484610536565b505050565b5b818110156105975761058c600082610560565b600181019050610579565b5050565b601f8211156105dc576105ad81610472565b6105b684610487565b810160208510156105c5578190505b6105d96105d185610487565b830182610578565b50505b505050565b600082821c905092915050565b60006105ff600019846008026105e1565b1980831691505092915050565b600061061883836105ee565b9150826002028217905092915050565b61063182610407565b67ffffffffffffffff81111561064a57610649610278565b5b6106548254610441565b61065f82828561059b565b600060209050601f8311600181146106925760008415610680578287015190505b61068a858261060c565b8655506106f2565b601f1984166106a086610472565b60005b828110156106c8578489015182556001820191506020850194506020810190506106a3565b868310156106e557848901516106e1601f8916826105ee565b8355505b6001600288020188555050505b505050505050565b6000819050919050565b61070d816106fa565b82525050565b61071c816104f6565b82525050565b600073ffffffffffffffffffffffffffffffffffffffff82169050919050565b600061074d82610722565b9050919050565b61075d81610742565b82525050565b600060a0820190506107786000830188610704565b6107856020830187610704565b6107926040830186610704565b61079f6060830185610713565b6107ac6080830184610754565b9695505050505050565b600082825260208201905092915050565b60006107d282610407565b6107dc81856107b6565b93506107ec818560208601610324565b6107f581610267565b840191505092915050565b6000602082019050818103600083015261081a81846107c7565b905092915050565b600081519050919050565b6000819050602082019050919050565b600061084982516106fa565b80915050919050565b600061085d82610822565b826108678461082d565b90506108728161083d565b925060208210156108b2576108ad7fffffffffffffffffffffffffffffffffffffffffffffffffffffffffffffffff83602003600802610497565b831692505b5050919050565b60805160a05160c05160e05161010051610120516101405161211261091360003960006106990152600061065e015260006114e5015260006114c401526000611267015260006112bd015260006112e601526121126000f3fe6080604052600436106100555760003560e01c806319d8d38c1461005a5780637ecebe001461009757806384b0196e146100d4578063ccf96b4a14610105578063df905caf14610121578063e2b9e1861461013d575b600080fd5b34801561006657600080fd5b50610081600480360381019061007c919061156d565b610168565b60405161008e91906115d1565b60405180910390f35b3480156100a357600080fd5b506100be60048036038101906100b9919061164a565b61019b565b6040516100cb9190611690565b60405180910390f35b3480156100e057600080fd5b506100e96101e4565b6040516100fc979695949392919061185c565b60405180910390f35b61011f600480360381019061011a9190611983565b61028e565b005b61013b6004803603810190610136919061156d565b6103fa565b005b34801561014957600080fd5b5061015261051c565b60405161015f91906119e3565b60405180910390f35b600080600080610177856105aa565b509250925092508280156101885750815b80156101915750805b9350505050919050565b6000600260008373ffffffffffffffffffffffffffffffffffffffff1673ffffffffffffffffffffffffffffffffffffffff168152602001908152602001600020549050919050565b6000606080600080600060606101f8610655565b610200610690565b46306000801b600067ffffffffffffffff81111561022157610220611a05565b5b60405190808252806020026020018201604052801561024f5781602001602082028036833780820191505090505b507f0f00000000000000000000000000000000000000000000000000000000000000959493929190965096509650965096509650965090919293949596565b610297336106cb565b6102d6576040517f08c379a00000000000000000000000000000000000000000000000000000000081526004016102cd90611a80565b60405180910390fd5b6102e1838383610715565b6103236040518060400160405280601b81526020017f72657175657374732e6c656e6774682d2d2d2d2d2d2d2d2d2d2d3e00000000008152508484905061086b565b6103626040518060400160405280601a81526020017f726566756e6452656365697665722d2d2d2d2d2d2d2d2d2d2d3e00000000000081525082610907565b6103a26040518060400160405280601381526020017f737563636573732d2d2d2d2d2d2d2d2d2d2d3e0000000000000000000000000081525060016109a3565b8073ffffffffffffffffffffffffffffffffffffffff16838390507fe94bd8ab82887b872480a63dc973cb9305ed4363100496ea41c34094a6d3aa0960016040516103ed91906115d1565b60405180910390a3505050565b610403336106cb565b610442576040517f08c379a000000000000000000000000000000000000000000000000000000000815260040161043990611a80565b60405180910390fd5b61044b81610a3f565b61048a6040518060400160405280601881526020017f6d73672e73656e6465722d2d2d2d2d2d2d2d2d2d2d2d2d3e000000000000000081525033610907565b6104ca6040518060400160405280601581526020017f737563636573732d2d2d2d2d2d2d2d2d2d2d2d2d3e000000000000000000000081525060016109a3565b3373ffffffffffffffffffffffffffffffffffffffff167f76cadd3f91c7dfde1928dcdfa4ae8dd67ef2b2bfc1406d162a549edfa845ffdd600160405161051191906115d1565b60405180910390a250565b6003805461052990611acf565b80601f016020809104026020016040519081016040528092919081815260200182805461055590611acf565b80156105a25780601f10610577576101008083540402835291602001916105a2565b820191906000526020600020905b81548152906001019060200180831161058557829003601f168201915b505050505081565b6000806000806000806105bc87610ad1565b915091506105db8760200160208101906105d6919061164a565b610c4e565b428860800160208101906105ef9190611b3e565b65ffffffffffff1610158380156106435750886000016020810190610614919061164a565b73ffffffffffffffffffffffffffffffffffffffff168373ffffffffffffffffffffffffffffffffffffffff16145b83955095509550955050509193509193565b606061068b60007f0000000000000000000000000000000000000000000000000000000000000000610cea90919063ffffffff16565b905090565b60606106c660017f0000000000000000000000000000000000000000000000000000000000000000610cea90919063ffffffff16565b905090565b600061070c6040518060400160405280601681526020017f757365722d2d2d2d2d2d2d2d2d2d2d2d2d2d2d2d2d3e0000000000000000000081525083610907565b60019050919050565b60008073ffffffffffffffffffffffffffffffffffffffff168273ffffffffffffffffffffffffffffffffffffffff1614905060008060005b868690508110156108095786868281811061076c5761076b611b6b565b5b905060200281019061077e9190611ba9565b604001358361078d9190611c00565b925060006107bf8888848181106107a7576107a6611b6b565b5b90506020028101906107b99190611ba9565b86610d9a565b9050806107fd578787838181106107d9576107d8611b6b565b5b90506020028101906107eb9190611ba9565b60400135836107fa9190611c00565b92505b5080600101905061074e565b503482146108505781346040517f70647f79000000000000000000000000000000000000000000000000000000008152600401610847929190611c34565b60405180910390fd5b60008114610863576108628482610fcf565b5b505050505050565b6109038282604051602401610881929190611c5d565b6040516020818303038152906040527fb60e72cc000000000000000000000000000000000000000000000000000000007bffffffffffffffffffffffffffffffffffffffffffffffffffffffff19166020820180517bffffffffffffffffffffffffffffffffffffffffffffffffffffffff83818316178352505050506110be565b5050565b61099f828260405160240161091d929190611c8d565b6040516020818303038152906040527f319af333000000000000000000000000000000000000000000000000000000007bffffffffffffffffffffffffffffffffffffffffffffffffffffffff19166020820180517bffffffffffffffffffffffffffffffffffffffffffffffffffffffff83818316178352505050506110be565b5050565b610a3b82826040516024016109b9929190611cbd565b6040516020818303038152906040527fc3b55635000000000000000000000000000000000000000000000000000000007bffffffffffffffffffffffffffffffffffffffffffffffffffffffff19166020820180517bffffffffffffffffffffffffffffffffffffffffffffffffffffffff83818316178352505050506110be565b5050565b80604001353414610a8d578060400135346040517f70647f79000000000000000000000000000000000000000000000000000000008152600401610a84929190611c34565b60405180910390fd5b610a98816001610d9a565b610ace576040517fd6bda27500000000000000000000000000000000000000000000000000000000815260040160405180910390fd5b50565b600080600080610c15858060c00190610aea9190611ced565b8080601f016020809104026020016040519081016040528093929190818152602001838380828437600081840152601f19601f82011690508083019250505050505050610c077f7f96328b83274ebc7c1cf4f7a3abda602b51a78b7fa1d86a2ce353d75e587cac886000016020810190610b64919061164a565b896020016020810190610b77919061164a565b8a604001358b60600135610b9c8d6000016020810190610b97919061164a565b61019b565b8d6080016020810190610baf9190611b3e565b8e8060a00190610bbf9190611ced565b604051610bcd929190611d8f565b6040518091039020604051602001610bec989796959493929190611db7565b604051602081830303815290604052805190602001206110d8565b6110f290919063ffffffff16565b509150915060006003811115610c2e57610c2d611e35565b5b816003811115610c4157610c40611e35565b5b1482935093505050915091565b60008030604051602401610c629190611e64565b60405160208183030381529060405263572b6c0560e01b6020820180517bffffffffffffffffffffffffffffffffffffffffffffffffffffffff83818316178352505050509050600080600060206000855160208701895afa92503d91506000519050828015610cd3575060208210155b8015610cdf5750600081115b945050505050919050565b606060ff60001b8314610d0757610d008361114e565b9050610d94565b818054610d1390611acf565b80601f0160208091040260200160405190810160405280929190818152602001828054610d3f90611acf565b8015610d8c5780601f10610d6157610100808354040283529160200191610d8c565b820191906000526020600020905b815481529060010190602001808311610d6f57829003601f168201915b505050505090505b92915050565b6000806000806000610dab876105aa565b93509350935093508515610eba5783610e0f57866020016020810190610dd1919061164a565b306040517fd2650cd1000000000000000000000000000000000000000000000000000000008152600401610e06929190611e7f565b60405180910390fd5b82610e6357866080016020810190610e279190611b3e565b6040517f94eef58a000000000000000000000000000000000000000000000000000000008152600401610e5a9190611ea8565b60405180910390fd5b81610eb95780876000016020810190610e7c919061164a565b6040517fc845a056000000000000000000000000000000000000000000000000000000008152600401610eb0929190611e7f565b60405180910390fd5b5b838015610ec45750815b8015610ecd5750825b15610fc5576000610edd826111c2565b90506000886060013590506000896020016020810190610efd919061164a565b905060008a60400135905060008b8060a00190610f1a9190611ced565b8d6000016020810190610f2d919061164a565b604051602001610f3f93929190611f0b565b6040516020818303038152906040529050600080600083516020850186888af19a505a9050610f6e818e611219565b8673ffffffffffffffffffffffffffffffffffffffff167f842fb24a83793558587a3dab2be7674da4a51d09c5542d6dd354e5d0ea70813c878d604051610fb6929190611f35565b60405180910390a25050505050505b5050505092915050565b804710156110165747816040517fcf47918100000000000000000000000000000000000000000000000000000000815260040161100d929190611c34565b60405180910390fd5b60008273ffffffffffffffffffffffffffffffffffffffff168260405161103c90611f84565b60006040518083038185875af1925050503d8060008114611079576040519150601f19603f3d011682016040523d82523d6000602084013e61107e565b606091505b50509050806110b9576040517fd6bda27500000000000000000000000000000000000000000000000000000000815260040160405180910390fd5b505050565b6110d5816110cd611237611258565b63ffffffff16565b50565b60006110eb6110e5611263565b8361131a565b9050919050565b600080600060418451036111375760008060006020870151925060408701519150606087015160001a90506111298882858561135b565b955095509550505050611147565b60006002855160001b9250925092505b9250925092565b6060600061115b8361144f565b90506000602067ffffffffffffffff81111561117a57611179611a05565b5b6040519080825280601f01601f1916602001820160405280156111ac5781602001600182028036833780820191505090505b5090508181528360208201528092505050919050565b6000600260008373ffffffffffffffffffffffffffffffffffffffff1673ffffffffffffffffffffffffffffffffffffffff1681526020019081526020016000206000815480929190600101919050559050919050565b603f816060013561122a9190611fc8565b82101561123357fe5b5050565b60006a636f6e736f6c652e6c6f679050600080835160208501845afa505050565b611535819050919050565b60007f000000000000000000000000000000000000000000000000000000000000000073ffffffffffffffffffffffffffffffffffffffff163073ffffffffffffffffffffffffffffffffffffffff161480156112df57507f000000000000000000000000000000000000000000000000000000000000000046145b1561130c577f00000000000000000000000000000000000000000000000000000000000000009050611317565b61131461149f565b90505b90565b60006040517f190100000000000000000000000000000000000000000000000000000000000081528360028201528260228201526042812091505092915050565b60008060007f7fffffffffffffffffffffffffffffff5d576e7357a4501ddfe92f46681b20a08460001c111561139b576000600385925092509250611445565b6000600188888888604051600081526020016040526040516113c09493929190612015565b6020604051602081039080840390855afa1580156113e2573d6000803e3d6000fd5b505050602060405103519050600073ffffffffffffffffffffffffffffffffffffffff168173ffffffffffffffffffffffffffffffffffffffff160361143657600060016000801b93509350935050611445565b8060008060001b935093509350505b9450945094915050565b60008060ff8360001c169050601f811115611496576040517fb3512b0c00000000000000000000000000000000000000000000000000000000815260040160405180910390fd5b80915050919050565b60007f8b73c3c69bb8fe3d512ecc4cf759cc79239f7b179b0ffacaa9a75d522b39400f7f00000000000000000000000000000000000000000000000000000000000000007f0000000000000000000000000000000000000000000000000000000000000000463060405160200161151a95949392919061205a565b60405160208183030381529060405280519060200120905090565b61153d6120ad565b565b600080fd5b600080fd5b600080fd5b600060e0828403121561156457611563611549565b5b81905092915050565b6000602082840312156115835761158261153f565b5b600082013567ffffffffffffffff8111156115a1576115a0611544565b5b6115ad8482850161154e565b91505092915050565b60008115159050919050565b6115cb816115b6565b82525050565b60006020820190506115e660008301846115c2565b92915050565b600073ffffffffffffffffffffffffffffffffffffffff82169050919050565b6000611617826115ec565b9050919050565b6116278161160c565b811461163257600080fd5b50565b6000813590506116448161161e565b92915050565b6000602082840312156116605761165f61153f565b5b600061166e84828501611635565b91505092915050565b6000819050919050565b61168a81611677565b82525050565b60006020820190506116a56000830184611681565b92915050565b60007fff0000000000000000000000000000000000000000000000000000000000000082169050919050565b6116e0816116ab565b82525050565b600081519050919050565b600082825260208201905092915050565b60005b83811015611720578082015181840152602081019050611705565b60008484015250505050565b6000601f19601f8301169050919050565b6000611748826116e6565b61175281856116f1565b9350611762818560208601611702565b61176b8161172c565b840191505092915050565b61177f8161160c565b82525050565b6000819050919050565b61179881611785565b82525050565b600081519050919050565b600082825260208201905092915050565b6000819050602082019050919050565b6117d381611677565b82525050565b60006117e583836117ca565b60208301905092915050565b6000602082019050919050565b60006118098261179e565b61181381856117a9565b935061181e836117ba565b8060005b8381101561184f57815161183688826117d9565b9750611841836117f1565b925050600181019050611822565b5085935050505092915050565b600060e082019050611871600083018a6116d7565b8181036020830152611883818961173d565b90508181036040830152611897818861173d565b90506118a66060830187611681565b6118b36080830186611776565b6118c060a083018561178f565b81810360c08301526118d281846117fe565b905098975050505050505050565b600080fd5b600080fd5b600080fd5b60008083601f840112611905576119046118e0565b5b8235905067ffffffffffffffff811115611922576119216118e5565b5b60208301915083602082028301111561193e5761193d6118ea565b5b9250929050565b6000611950826115ec565b9050919050565b61196081611945565b811461196b57600080fd5b50565b60008135905061197d81611957565b92915050565b60008060006040848603121561199c5761199b61153f565b5b600084013567ffffffffffffffff8111156119ba576119b9611544565b5b6119c6868287016118ef565b935093505060206119d98682870161196e565b9150509250925092565b600060208201905081810360008301526119fd818461173d565b905092915050565b7f4e487b7100000000000000000000000000000000000000000000000000000000600052604160045260246000fd5b7f4e6f7420617574686f72697a6564000000000000000000000000000000000000600082015250565b6000611a6a600e836116f1565b9150611a7582611a34565b602082019050919050565b60006020820190508181036000830152611a9981611a5d565b9050919050565b7f4e487b7100000000000000000000000000000000000000000000000000000000600052602260045260246000fd5b60006002820490506001821680611ae757607f821691505b602082108103611afa57611af9611aa0565b5b50919050565b600065ffffffffffff82169050919050565b611b1b81611b00565b8114611b2657600080fd5b50565b600081359050611b3881611b12565b92915050565b600060208284031215611b5457611b5361153f565b5b6000611b6284828501611b29565b91505092915050565b7f4e487b7100000000000000000000000000000000000000000000000000000000600052603260045260246000fd5b600080fd5b600080fd5b600080fd5b60008235600160e003833603038112611bc557611bc4611b9a565b5b80830191505092915050565b7f4e487b7100000000000000000000000000000000000000000000000000000000600052601160045260246000fd5b6000611c0b82611677565b9150611c1683611677565b9250828201905080821115611c2e57611c2d611bd1565b5b92915050565b6000604082019050611c496000830185611681565b611c566020830184611681565b9392505050565b60006040820190508181036000830152611c77818561173d565b9050611c866020830184611681565b9392505050565b60006040820190508181036000830152611ca7818561173d565b9050611cb66020830184611776565b9392505050565b60006040820190508181036000830152611cd7818561173d565b9050611ce660208301846115c2565b9392505050565b60008083356001602003843603038112611d0a57611d09611b9a565b5b80840192508235915067ffffffffffffffff821115611d2c57611d2b611b9f565b5b602083019250600182023603831315611d4857611d47611ba4565b5b509250929050565b600081905092915050565b82818337600083830152505050565b6000611d768385611d50565b9350611d83838584611d5b565b82840190509392505050565b6000611d9c828486611d6a565b91508190509392505050565b611db181611b00565b82525050565b600061010082019050611dcd600083018b61178f565b611dda602083018a611776565b611de76040830189611776565b611df46060830188611681565b611e016080830187611681565b611e0e60a0830186611681565b611e1b60c0830185611da8565b611e2860e083018461178f565b9998505050505050505050565b7f4e487b7100000000000000000000000000000000000000000000000000000000600052602160045260246000fd5b6000602082019050611e796000830184611776565b92915050565b6000604082019050611e946000830185611776565b611ea16020830184611776565b9392505050565b6000602082019050611ebd6000830184611da8565b92915050565b60008160601b9050919050565b6000611edb82611ec3565b9050919050565b6000611eed82611ed0565b9050919050565b611f05611f008261160c565b611ee2565b82525050565b6000611f18828587611d6a565b9150611f248284611ef4565b601482019150819050949350505050565b6000604082019050611f4a6000830185611681565b611f5760208301846115c2565b9392505050565b50565b6000611f6e600083611d50565b9150611f7982611f5e565b600082019050919050565b6000611f8f82611f61565b9150819050919050565b7f4e487b7100000000000000000000000000000000000000000000000000000000600052601260045260246000fd5b6000611fd382611677565b9150611fde83611677565b925082611fee57611fed611f99565b5b828204905092915050565b600060ff82169050919050565b61200f81611ff9565b82525050565b600060808201905061202a600083018761178f565b6120376020830186612006565b612044604083018561178f565b612051606083018461178f565b95945050505050565b600060a08201905061206f600083018861178f565b61207c602083018761178f565b612089604083018661178f565b6120966060830185611681565b6120a36080830184611776565b9695505050505050565b7f4e487b7100000000000000000000000000000000000000000000000000000000600052605160045260246000fdfea26469706673582212201cdca1977a33b842ee58e39e5bb0d4502330b5ce1b809c43c313148df4e25c1464736f6c634300081b0033",
  "linkReferences": {},
  "deployedLinkReferences": {}
}