{
  "_format": "hh-sol-artifact-1",
  "contractName": "ERC2771Forwarder",
  "sourceName": "@openzeppelin/contracts/metatx/ERC2771Forwarder.sol",
  "abi": [
    {
      "inputs": [
        {
          "internalType": "string",
          "name": "name",
          "type": "string"
        }
      ],
      "stateMutability": "nonpayable",
      "type": "constructor"
    },
    {
      "inputs": [
        {
          "internalType": "uint48",
          "name": "deadline",
          "type": "uint48"
        }
      ],
      "name": "ERC2771ForwarderExpiredRequest",
      "type": "error"
    },
    {
      "inputs": [
        {
          "internalType": "address",
          "name": "signer",
          "type": "address"
        },
        {
          "internalType": "address",
          "name": "from",
          "type": "address"
        }
      ],
      "name": "ERC2771ForwarderInvalidSigner",
      "type": "error"
    },
    {
      "inputs": [
        {
          "internalType": "uint256",
          "name": "requestedValue",
          "type": "uint256"
        },
        {
          "internalType": "uint256",
          "name": "msgValue",
          "type": "uint256"
        }
      ],
      "name": "ERC2771ForwarderMismatchedValue",
      "type": "error"
    },
    {
      "inputs": [
        {
          "internalType": "address",
          "name": "target",
          "type": "address"
        },
        {
          "internalType": "address",
          "name": "forwarder",
          "type": "address"
        }
      ],
      "name": "ERC2771UntrustfulTarget",
      "type": "error"
    },
    {
      "inputs": [],
      "name": "FailedCall",
      "type": "error"
    },
    {
      "inputs": [
        {
          "internalType": "uint256",
          "name": "balance",
          "type": "uint256"
        },
        {
          "internalType": "uint256",
          "name": "needed",
          "type": "uint256"
        }
      ],
      "name": "InsufficientBalance",
      "type": "error"
    },
    {
      "inputs": [
        {
          "internalType": "address",
          "name": "account",
          "type": "address"
        },
        {
          "internalType": "uint256",
          "name": "currentNonce",
          "type": "uint256"
        }
      ],
      "name": "InvalidAccountNonce",
      "type": "error"
    },
    {
      "inputs": [],
      "name": "InvalidShortString",
      "type": "error"
    },
    {
      "inputs": [
        {
          "internalType": "string",
          "name": "str",
          "type": "string"
        }
      ],
      "name": "StringTooLong",
      "type": "error"
    },
    {
      "anonymous": false,
      "inputs": [],
      "name": "EIP712DomainChanged",
      "type": "event"
    },
    {
      "anonymous": false,
      "inputs": [
        {
          "indexed": true,
          "internalType": "address",
          "name": "signer",
          "type": "address"
        },
        {
          "indexed": false,
          "internalType": "uint256",
          "name": "nonce",
          "type": "uint256"
        },
        {
          "indexed": false,
          "internalType": "bool",
          "name": "success",
          "type": "bool"
        }
      ],
      "name": "ExecutedForwardRequest",
      "type": "event"
    },
    {
      "inputs": [],
      "name": "eip712Domain",
      "outputs": [
        {
          "internalType": "bytes1",
          "name": "fields",
          "type": "bytes1"
        },
        {
          "internalType": "string",
          "name": "name",
          "type": "string"
        },
        {
          "internalType": "string",
          "name": "version",
          "type": "string"
        },
        {
          "internalType": "uint256",
          "name": "chainId",
          "type": "uint256"
        },
        {
          "internalType": "address",
          "name": "verifyingContract",
          "type": "address"
        },
        {
          "internalType": "bytes32",
          "name": "salt",
          "type": "bytes32"
        },
        {
          "internalType": "uint256[]",
          "name": "extensions",
          "type": "uint256[]"
        }
      ],
      "stateMutability": "view",
      "type": "function"
    },
    {
      "inputs": [
        {
          "components": [
            {
              "internalType": "address",
              "name": "from",
              "type": "address"
            },
            {
              "internalType": "address",
              "name": "to",
              "type": "address"
            },
            {
              "internalType": "uint256",
              "name": "value",
              "type": "uint256"
            },
            {
              "internalType": "uint256",
              "name": "gas",
              "type": "uint256"
            },
            {
              "internalType": "uint48",
              "name": "deadline",
              "type": "uint48"
            },
            {
              "internalType": "bytes",
              "name": "data",
              "type": "bytes"
            },
            {
              "internalType": "bytes",
              "name": "signature",
              "type": "bytes"
            }
          ],
          "internalType": "struct ERC2771Forwarder.ForwardRequestData",
          "name": "request",
          "type": "tuple"
        }
      ],
      "name": "execute",
      "outputs": [],
      "stateMutability": "payable",
      "type": "function"
    },
    {
      "inputs": [
        {
          "components": [
            {
              "internalType": "address",
              "name": "from",
              "type": "address"
            },
            {
              "internalType": "address",
              "name": "to",
              "type": "address"
            },
            {
              "internalType": "uint256",
              "name": "value",
              "type": "uint256"
            },
            {
              "internalType": "uint256",
              "name": "gas",
              "type": "uint256"
            },
            {
              "internalType": "uint48",
              "name": "deadline",
              "type": "uint48"
            },
            {
              "internalType": "bytes",
              "name": "data",
              "type": "bytes"
            },
            {
              "internalType": "bytes",
              "name": "signature",
              "type": "bytes"
            }
          ],
          "internalType": "struct ERC2771Forwarder.ForwardRequestData[]",
          "name": "requests",
          "type": "tuple[]"
        },
        {
          "internalType": "address payable",
          "name": "refundReceiver",
          "type": "address"
        }
      ],
      "name": "executeBatch",
      "outputs": [],
      "stateMutability": "payable",
      "type": "function"
    },
    {
      "inputs": [
        {
          "internalType": "address",
          "name": "owner",
          "type": "address"
        }
      ],
      "name": "nonces",
      "outputs": [
        {
          "internalType": "uint256",
          "name": "",
          "type": "uint256"
        }
      ],
      "stateMutability": "view",
      "type": "function"
    },
    {
      "inputs": [
        {
          "components": [
            {
              "internalType": "address",
              "name": "from",
              "type": "address"
            },
            {
              "internalType": "address",
              "name": "to",
              "type": "address"
            },
            {
              "internalType": "uint256",
              "name": "value",
              "type": "uint256"
            },
            {
              "internalType": "uint256",
              "name": "gas",
              "type": "uint256"
            },
            {
              "internalType": "uint48",
              "name": "deadline",
              "type": "uint48"
            },
            {
              "internalType": "bytes",
              "name": "data",
              "type": "bytes"
            },
            {
              "internalType": "bytes",
              "name": "signature",
              "type": "bytes"
            }
          ],
          "internalType": "struct ERC2771Forwarder.ForwardRequestData",
          "name": "request",
          "type": "tuple"
        }
      ],
      "name": "verify",
      "outputs": [
        {
          "internalType": "bool",
          "name": "",
          "type": "bool"
        }
      ],
      "stateMutability": "view",
      "type": "function"
    }
  ],
  "bytecode": "0x61016060405234801561001157600080fd5b50604051612306380380612306833981810160405281019061003391906103ac565b806040518060400160405280600181526020017f310000000000000000000000000000000000000000000000000000000000000081525061007e60008361011a60201b90919060201c565b610120818152505061009a60018261011a60201b90919060201c565b6101408181525050818051906020012060e08181525050808051906020012061010081815250504660a081815250506100d761016a60201b60201c565b608081815250503073ffffffffffffffffffffffffffffffffffffffff1660c08173ffffffffffffffffffffffffffffffffffffffff16815250505050506108a7565b600060208351101561013c57610135836101c560201b60201c565b9050610164565b8261014c8361022d60201b60201c565b600001908161015b9190610616565b5060ff60001b90505b92915050565b60007f8b73c3c69bb8fe3d512ecc4cf759cc79239f7b179b0ffacaa9a75d522b39400f60e0516101005146306040516020016101aa959493929190610751565b60405160208183030381529060405280519060200120905090565b600080829050601f8151111561021257826040517f305a27a900000000000000000000000000000000000000000000000000000000815260040161020991906107ee565b60405180910390fd5b80518161021e90610840565b60001c1760001b915050919050565b6000819050919050565b6000604051905090565b600080fd5b600080fd5b600080fd5b600080fd5b6000601f19601f8301169050919050565b7f4e487b7100000000000000000000000000000000000000000000000000000000600052604160045260246000fd5b61029e82610255565b810181811067ffffffffffffffff821117156102bd576102bc610266565b5b80604052505050565b60006102d0610237565b90506102dc8282610295565b919050565b600067ffffffffffffffff8211156102fc576102fb610266565b5b61030582610255565b9050602081019050919050565b60005b83811015610330578082015181840152602081019050610315565b60008484015250505050565b600061034f61034a846102e1565b6102c6565b90508281526020810184848401111561036b5761036a610250565b5b610376848285610312565b509392505050565b600082601f8301126103935761039261024b565b5b81516103a384826020860161033c565b91505092915050565b6000602082840312156103c2576103c1610241565b5b600082015167ffffffffffffffff8111156103e0576103df610246565b5b6103ec8482850161037e565b91505092915050565b600081519050919050565b7f4e487b7100000000000000000000000000000000000000000000000000000000600052602260045260246000fd5b6000600282049050600182168061044757607f821691505b60208210810361045a57610459610400565b5b50919050565b60008190508160005260206000209050919050565b60006020601f8301049050919050565b600082821b905092915050565b6000600883026104c27fffffffffffffffffffffffffffffffffffffffffffffffffffffffffffffffff82610485565b6104cc8683610485565b95508019841693508086168417925050509392505050565b6000819050919050565b6000819050919050565b600061051361050e610509846104e4565b6104ee565b6104e4565b9050919050565b6000819050919050565b61052d836104f8565b6105416105398261051a565b848454610492565b825550505050565b600090565b610556610549565b610561818484610524565b505050565b5b818110156105855761057a60008261054e565b600181019050610567565b5050565b601f8211156105ca5761059b81610460565b6105a484610475565b810160208510156105b3578190505b6105c76105bf85610475565b830182610566565b50505b505050565b600082821c905092915050565b60006105ed600019846008026105cf565b1980831691505092915050565b600061060683836105dc565b9150826002028217905092915050565b61061f826103f5565b67ffffffffffffffff81111561063857610637610266565b5b610642825461042f565b61064d828285610589565b600060209050601f831160018114610680576000841561066e578287015190505b61067885826105fa565b8655506106e0565b601f19841661068e86610460565b60005b828110156106b657848901518255600182019150602085019450602081019050610691565b868310156106d357848901516106cf601f8916826105dc565b8355505b6001600288020188555050505b505050505050565b6000819050919050565b6106fb816106e8565b82525050565b61070a816104e4565b82525050565b600073ffffffffffffffffffffffffffffffffffffffff82169050919050565b600061073b82610710565b9050919050565b61074b81610730565b82525050565b600060a08201905061076660008301886106f2565b61077360208301876106f2565b61078060408301866106f2565b61078d6060830185610701565b61079a6080830184610742565b9695505050505050565b600082825260208201905092915050565b60006107c0826103f5565b6107ca81856107a4565b93506107da818560208601610312565b6107e381610255565b840191505092915050565b6000602082019050818103600083015261080881846107b5565b905092915050565b600081519050919050565b6000819050602082019050919050565b600061083782516106e8565b80915050919050565b600061084b82610810565b826108558461081b565b90506108608161082b565b925060208210156108a05761089b7fffffffffffffffffffffffffffffffffffffffffffffffffffffffffffffffff83602003600802610485565b831692505b5050919050565b60805160a05160c05160e051610100516101205161014051611a05610901600039600061052f015260006104f401526000610f2f01526000610f0e01526000610cb101526000610d0701526000610d300152611a056000f3fe60806040526004361061004a5760003560e01c806319d8d38c1461004f5780637ecebe001461008c57806384b0196e146100c9578063ccf96b4a146100fa578063df905caf14610116575b600080fd5b34801561005b57600080fd5b5061007660048036038101906100719190610fad565b610132565b6040516100839190611011565b60405180910390f35b34801561009857600080fd5b506100b360048036038101906100ae919061108a565b610165565b6040516100c091906110d0565b60405180910390f35b3480156100d557600080fd5b506100de6101ae565b6040516100f1979695949392919061129c565b60405180910390f35b610114600480360381019061010f91906113c3565b610258565b005b610130600480360381019061012b9190610fad565b6103ae565b005b60008060008061014185610440565b509250925092508280156101525750815b801561015b5750805b9350505050919050565b6000600260008373ffffffffffffffffffffffffffffffffffffffff1673ffffffffffffffffffffffffffffffffffffffff168152602001908152602001600020549050919050565b6000606080600080600060606101c26104eb565b6101ca610526565b46306000801b600067ffffffffffffffff8111156101eb576101ea611423565b5b6040519080825280602002602001820160405280156102195781602001602082028036833780820191505090505b507f0f00000000000000000000000000000000000000000000000000000000000000959493929190965096509650965096509650965090919293949596565b60008073ffffffffffffffffffffffffffffffffffffffff168273ffffffffffffffffffffffffffffffffffffffff1614905060008060005b8686905081101561034c578686828181106102af576102ae611452565b5b90506020028101906102c19190611490565b60400135836102d091906114e7565b925060006103028888848181106102ea576102e9611452565b5b90506020028101906102fc9190611490565b86610561565b9050806103405787878381811061031c5761031b611452565b5b905060200281019061032e9190611490565b604001358361033d91906114e7565b92505b50806001019050610291565b503482146103935781346040517f70647f7900000000000000000000000000000000000000000000000000000000815260040161038a92919061151b565b60405180910390fd5b600081146103a6576103a58482610796565b5b505050505050565b806040013534146103fc578060400135346040517f70647f790000000000000000000000000000000000000000000000000000000081526004016103f392919061151b565b60405180910390fd5b610407816001610561565b61043d576040517fd6bda27500000000000000000000000000000000000000000000000000000000815260040160405180910390fd5b50565b60008060008060008061045287610885565b9150915061047187602001602081019061046c919061108a565b610a02565b428860800160208101906104859190611582565b65ffffffffffff1610158380156104d957508860000160208101906104aa919061108a565b73ffffffffffffffffffffffffffffffffffffffff168373ffffffffffffffffffffffffffffffffffffffff16145b83955095509550955050509193509193565b606061052160007f0000000000000000000000000000000000000000000000000000000000000000610a9e90919063ffffffff16565b905090565b606061055c60017f0000000000000000000000000000000000000000000000000000000000000000610a9e90919063ffffffff16565b905090565b600080600080600061057287610440565b9350935093509350851561068157836105d657866020016020810190610598919061108a565b306040517fd2650cd10000000000000000000000000000000000000000000000000000000081526004016105cd9291906115af565b60405180910390fd5b8261062a578660800160208101906105ee9190611582565b6040517f94eef58a00000000000000000000000000000000000000000000000000000000815260040161062191906115e7565b60405180910390fd5b816106805780876000016020810190610643919061108a565b6040517fc845a0560000000000000000000000000000000000000000000000000000000081526004016106779291906115af565b60405180910390fd5b5b83801561068b5750815b80156106945750825b1561078c5760006106a482610b4e565b905060008860600135905060008960200160208101906106c4919061108a565b905060008a60400135905060008b8060a001906106e19190611602565b8d60000160208101906106f4919061108a565b604051602001610706939291906116ec565b6040516020818303038152906040529050600080600083516020850186888af19a505a9050610735818e610ba5565b8673ffffffffffffffffffffffffffffffffffffffff167f842fb24a83793558587a3dab2be7674da4a51d09c5542d6dd354e5d0ea70813c878d60405161077d929190611716565b60405180910390a25050505050505b5050505092915050565b804710156107dd5747816040517fcf4791810000000000000000000000000000000000000000000000000000000081526004016107d492919061151b565b60405180910390fd5b60008273ffffffffffffffffffffffffffffffffffffffff168260405161080390611765565b60006040518083038185875af1925050503d8060008114610840576040519150601f19603f3d011682016040523d82523d6000602084013e610845565b606091505b5050905080610880576040517fd6bda27500000000000000000000000000000000000000000000000000000000815260040160405180910390fd5b505050565b6000806000806109c9858060c0019061089e9190611602565b8080601f016020809104026020016040519081016040528093929190818152602001838380828437600081840152601f19601f820116905080830192505050505050506109bb7f7f96328b83274ebc7c1cf4f7a3abda602b51a78b7fa1d86a2ce353d75e587cac886000016020810190610918919061108a565b89602001602081019061092b919061108a565b8a604001358b606001356109508d600001602081019061094b919061108a565b610165565b8d60800160208101906109639190611582565b8e8060a001906109739190611602565b60405161098192919061177a565b60405180910390206040516020016109a0989796959493929190611793565b60405160208183030381529060405280519060200120610bc3565b610bdd90919063ffffffff16565b5091509150600060038111156109e2576109e1611811565b5b8160038111156109f5576109f4611811565b5b1482935093505050915091565b60008030604051602401610a169190611840565b60405160208183030381529060405263572b6c0560e01b6020820180517bffffffffffffffffffffffffffffffffffffffffffffffffffffffff83818316178352505050509050600080600060206000855160208701895afa92503d91506000519050828015610a87575060208210155b8015610a935750600081115b945050505050919050565b606060ff60001b8314610abb57610ab483610c39565b9050610b48565b818054610ac79061188a565b80601f0160208091040260200160405190810160405280929190818152602001828054610af39061188a565b8015610b405780601f10610b1557610100808354040283529160200191610b40565b820191906000526020600020905b815481529060010190602001808311610b2357829003601f168201915b505050505090505b92915050565b6000600260008373ffffffffffffffffffffffffffffffffffffffff1673ffffffffffffffffffffffffffffffffffffffff1681526020019081526020016000206000815480929190600101919050559050919050565b603f8160600135610bb691906118ea565b821015610bbf57fe5b5050565b6000610bd6610bd0610cad565b83610d64565b9050919050565b60008060006041845103610c225760008060006020870151925060408701519150606087015160001a9050610c1488828585610da5565b955095509550505050610c32565b60006002855160001b9250925092505b9250925092565b60606000610c4683610e99565b90506000602067ffffffffffffffff811115610c6557610c64611423565b5b6040519080825280601f01601f191660200182016040528015610c975781602001600182028036833780820191505090505b5090508181528360208201528092505050919050565b60007f000000000000000000000000000000000000000000000000000000000000000073ffffffffffffffffffffffffffffffffffffffff163073ffffffffffffffffffffffffffffffffffffffff16148015610d2957507f000000000000000000000000000000000000000000000000000000000000000046145b15610d56577f00000000000000000000000000000000000000000000000000000000000000009050610d61565b610d5e610ee9565b90505b90565b60006040517f190100000000000000000000000000000000000000000000000000000000000081528360028201528260228201526042812091505092915050565b60008060007f7fffffffffffffffffffffffffffffff5d576e7357a4501ddfe92f46681b20a08460001c1115610de5576000600385925092509250610e8f565b600060018888888860405160008152602001604052604051610e0a9493929190611937565b6020604051602081039080840390855afa158015610e2c573d6000803e3d6000fd5b505050602060405103519050600073ffffffffffffffffffffffffffffffffffffffff168173ffffffffffffffffffffffffffffffffffffffff1603610e8057600060016000801b93509350935050610e8f565b8060008060001b935093509350505b9450945094915050565b60008060ff8360001c169050601f811115610ee0576040517fb3512b0c00000000000000000000000000000000000000000000000000000000815260040160405180910390fd5b80915050919050565b60007f8b73c3c69bb8fe3d512ecc4cf759cc79239f7b179b0ffacaa9a75d522b39400f7f00000000000000000000000000000000000000000000000000000000000000007f00000000000000000000000000000000000000000000000000000000000000004630604051602001610f6495949392919061197c565b60405160208183030381529060405280519060200120905090565b600080fd5b600080fd5b600080fd5b600060e08284031215610fa457610fa3610f89565b5b81905092915050565b600060208284031215610fc357610fc2610f7f565b5b600082013567ffffffffffffffff811115610fe157610fe0610f84565b5b610fed84828501610f8e565b91505092915050565b60008115159050919050565b61100b81610ff6565b82525050565b60006020820190506110266000830184611002565b92915050565b600073ffffffffffffffffffffffffffffffffffffffff82169050919050565b60006110578261102c565b9050919050565b6110678161104c565b811461107257600080fd5b50565b6000813590506110848161105e565b92915050565b6000602082840312156110a05761109f610f7f565b5b60006110ae84828501611075565b91505092915050565b6000819050919050565b6110ca816110b7565b82525050565b60006020820190506110e560008301846110c1565b92915050565b60007fff0000000000000000000000000000000000000000000000000000000000000082169050919050565b611120816110eb565b82525050565b600081519050919050565b600082825260208201905092915050565b60005b83811015611160578082015181840152602081019050611145565b60008484015250505050565b6000601f19601f8301169050919050565b600061118882611126565b6111928185611131565b93506111a2818560208601611142565b6111ab8161116c565b840191505092915050565b6111bf8161104c565b82525050565b6000819050919050565b6111d8816111c5565b82525050565b600081519050919050565b600082825260208201905092915050565b6000819050602082019050919050565b611213816110b7565b82525050565b6000611225838361120a565b60208301905092915050565b6000602082019050919050565b6000611249826111de565b61125381856111e9565b935061125e836111fa565b8060005b8381101561128f5781516112768882611219565b975061128183611231565b925050600181019050611262565b5085935050505092915050565b600060e0820190506112b1600083018a611117565b81810360208301526112c3818961117d565b905081810360408301526112d7818861117d565b90506112e660608301876110c1565b6112f360808301866111b6565b61130060a08301856111cf565b81810360c0830152611312818461123e565b905098975050505050505050565b600080fd5b600080fd5b600080fd5b60008083601f84011261134557611344611320565b5b8235905067ffffffffffffffff81111561136257611361611325565b5b60208301915083602082028301111561137e5761137d61132a565b5b9250929050565b60006113908261102c565b9050919050565b6113a081611385565b81146113ab57600080fd5b50565b6000813590506113bd81611397565b92915050565b6000806000604084860312156113dc576113db610f7f565b5b600084013567ffffffffffffffff8111156113fa576113f9610f84565b5b6114068682870161132f565b93509350506020611419868287016113ae565b9150509250925092565b7f4e487b7100000000000000000000000000000000000000000000000000000000600052604160045260246000fd5b7f4e487b7100000000000000000000000000000000000000000000000000000000600052603260045260246000fd5b600080fd5b600080fd5b600080fd5b60008235600160e0038336030381126114ac576114ab611481565b5b80830191505092915050565b7f4e487b7100000000000000000000000000000000000000000000000000000000600052601160045260246000fd5b60006114f2826110b7565b91506114fd836110b7565b9250828201905080821115611515576115146114b8565b5b92915050565b600060408201905061153060008301856110c1565b61153d60208301846110c1565b9392505050565b600065ffffffffffff82169050919050565b61155f81611544565b811461156a57600080fd5b50565b60008135905061157c81611556565b92915050565b60006020828403121561159857611597610f7f565b5b60006115a68482850161156d565b91505092915050565b60006040820190506115c460008301856111b6565b6115d160208301846111b6565b9392505050565b6115e181611544565b82525050565b60006020820190506115fc60008301846115d8565b92915050565b6000808335600160200384360303811261161f5761161e611481565b5b80840192508235915067ffffffffffffffff82111561164157611640611486565b5b60208301925060018202360383131561165d5761165c61148b565b5b509250929050565b600081905092915050565b82818337600083830152505050565b600061168b8385611665565b9350611698838584611670565b82840190509392505050565b60008160601b9050919050565b60006116bc826116a4565b9050919050565b60006116ce826116b1565b9050919050565b6116e66116e18261104c565b6116c3565b82525050565b60006116f982858761167f565b915061170582846116d5565b601482019150819050949350505050565b600060408201905061172b60008301856110c1565b6117386020830184611002565b9392505050565b50565b600061174f600083611665565b915061175a8261173f565b600082019050919050565b600061177082611742565b9150819050919050565b600061178782848661167f565b91508190509392505050565b6000610100820190506117a9600083018b6111cf565b6117b6602083018a6111b6565b6117c360408301896111b6565b6117d060608301886110c1565b6117dd60808301876110c1565b6117ea60a08301866110c1565b6117f760c08301856115d8565b61180460e08301846111cf565b9998505050505050505050565b7f4e487b7100000000000000000000000000000000000000000000000000000000600052602160045260246000fd5b600060208201905061185560008301846111b6565b92915050565b7f4e487b7100000000000000000000000000000000000000000000000000000000600052602260045260246000fd5b600060028204905060018216806118a257607f821691505b6020821081036118b5576118b461185b565b5b50919050565b7f4e487b7100000000000000000000000000000000000000000000000000000000600052601260045260246000fd5b60006118f5826110b7565b9150611900836110b7565b9250826119105761190f6118bb565b5b828204905092915050565b600060ff82169050919050565b6119318161191b565b82525050565b600060808201905061194c60008301876111cf565b6119596020830186611928565b61196660408301856111cf565b61197360608301846111cf565b95945050505050565b600060a08201905061199160008301886111cf565b61199e60208301876111cf565b6119ab60408301866111cf565b6119b860608301856110c1565b6119c560808301846111b6565b969550505050505056fea2646970667358221220a187ba07946de3efaa5f4868ce402755b41e79958829deb203df3bb86f474ffb64736f6c634300081b0033",
  "linkReferences": {},
  "deployedLinkReferences": {}
}